:020000040800F2
:10000000B8060020A5040008650200086702000881
:100010007102000875020008790200080000000063
:100020000000000000000000000000007D02000849
:100030007F0200080000000081020008830200081F
:10004000BF040008BF040008BF040008BF04000884
:10005000BF040008BF040008BF040008BF04000874
:10006000BF040008BF040008BF040008BF04000864
:10007000BF040008BF040008BF040008BF04000854
:10008000BF040008BF040008BF040008BF04000844
:10009000CF230008BF040008BF040008BF04000805
:1000A000BF040008BF040008BF040008BF04000824
:1000B000BF040008BF040008BF040008BF04000814
:1000C000BF040008BF040008BF040008BF04000804
:1000D000BF040008AF1F000883200008BF04000809
:1000E000BF040008BF040008BF040008BF040008E4
:1000F000BF040008BF040008BF040008BF040008D4
:10010000BF040008BF040008BF040008BF040008C3
:10011000BF040008BF040008BF040008BF040008B3
:10012000BF040008BF040008BF040008BF040008A3
:10013000BF040008BF040008BF040008BF04000893
:10014000BF040008BF040008BF040008BF04000883
:10015000BF040008BF040008BF0400084F220008C5
:10016000BF040008BF040008BF040008BF04000863
:10017000BF040008BF040008BF040008BF04000853
:10018000BF040008BF040008DFF80CD002F09EFB9B
:10019000004800479D010008B80600201CB54FF438
:1001A000A06000F091F902F095F84FF4E13001F011
:1001B00025FEA82001F092FD002400250E208DF8D8
:1001C00000001C208DF80100EE208DF80200B02008
:1001D0008DF80300E7208DF80400A1208DF80500BC
:1001E00099208DF8060035208DF8070019A001F040
:1001F0001BFF2EE069461A4802F000F91DF80400C2
:10020000401CC0B20DF80400601CC4B2E11704EB3E
:100210005171C910A4EBC10111B90024681CC5B209
:10022000E91705EB91718910A5EB810169B90025EA
:10023000002407E01DF804001F38C0B20DF80400C8
:10024000601CC4B2082CF5DB00244FF4FA6001F006
:10025000A7FDCFE7B4ABCAE4BFAACABC210D0A0010
:10026000A0020020704707A002F0D0FB00BFFEE70D
:1002700000BFFEE700BFFEE700BFFEE77047704724
:1002800070477047486172644661756C7421212122
:100290000D0A00000CB5002001900090764800681F
:1002A00040F480307449086000BF7348006800F46F
:1002B000003000900198401C0190009818B90198F6
:1002C000B0F5A04FF1D16C48006800F4003010B1D7
:1002D0000120009001E0002000900098012846D104
:1002E00065484030006840F0805063494031086004
:1002F0006248006840F44040604908605E48083049
:1003000000685D49083108600846006840F4004014
:1003100008600846006840F4A05008605848091F6B
:100320000860081F006840F08070091F086000BF67
:100330005148006800F000700028F9D040F20570C4
:10034000504908604C480830006820F003004A49D2
:10035000083108600846006840F00200086000BFED
:1003600045480830006800F00C000828F8D10CBDA2
:1003700010B54548006840F47000434908603E48A5
:10038000006840F001003C49086000203A4908310B
:100390000860394800683D490840374908603C48D2
:1003A000091D0860081F006820F48020091F0860EC
:1003B000002031490C310860FFF76CFF4FF00060FE
:1003C00031498039086010BD70B500200022022339
:1003D00000240221284D08352D6805F00C0020B1BD
:1003E000042806D0082834D107E02A4D2A4E35606B
:1003F00033E02A4D284E35602FE01F4D2D1D2D680E
:10040000C5F380541C4D2D1D2D6805F03F0154B1DE
:10041000224DB5FBF1F5184E361D3668C6F3881629
:1004200005FB06F209E01B4DB5FBF1F5124E361D3A
:100430003668C6F3881605FB06F20F4D2D1D2D6894
:10044000C5F301456D1C6B00B2FBF3F5124E356030
:1004500003E0104D104E356000BF00BF064D08355B
:100460002D68C5F303150E4E705D0B4D2D68C5400C
:10047000094E356070BD0000003802400070004039
:1004800008544007003C024088ED00E0FFFFF6FE04
:10049000103000240024F4000000002000127A0034
:1004A000040000200648804706480047FEE7FEE7B4
:1004B000FEE7FEE7FEE7FEE7FEE7FEE7FEE7FEE714
:1004C000710300088901000832490143324A116072
:1004D000704770B5002100230F22C4781CB32E4C46
:1004E000246804F4E064C4F5E064C4F30721C1F1B6
:1004F0000404E3B20A4144789C40E1B28478144099
:1005000021430C07210E254C05786155047804F031
:100510001F050124AC4005786D11AD0005F1E02503
:10052000C5F8004109E0047804F01F050124AC403F
:100530001B4D0678761145F8264070BD194A0A40D1
:100540000243154B1B1F1A60704739B1124A121D26
:1005500012680243104B1B1D1A6006E00E4A121D62
:10056000126882430C4B1B1D1A607047042808D187
:100570004FF0E021096941F004014FF0E0221161E0
:1005800007E04FF0E021096921F004014FF0E0227B
:10059000116170470000FA050CED00E000E400E096
:1005A00080E100E080FFFF1F10B50446FE48844252
:1005B00009D10121480601F0B1F800214FF0007087
:1005C00001F0ACF808E00121880601F0A7F800214D
:1005D0004FF0806001F0A2F810BD30B50246002057
:1005E0000023146824F002041460146844F0010429
:1005F000146000E05B1C546804F001041CB94FF661
:10060000FF74A342F6D1546804F001040CB9002031
:100610006CE08C79012C04D1146844F080041460DF
:1006200003E0146824F080041460CC79012C04D118
:10063000146844F04004146003E0146824F040049B
:1006400014600C7A012C04D1146844F02004146066
:1006500003E0146824F0200414604C7A012C04D1C7
:10066000146844F01004146003E0146824F01004CB
:1006700014608C7A012C04D1146844F008041460CE
:1006800003E0146824F008041460CC7A012C04D12F
:10069000146844F00404146003E0146824F00404B3
:1006A00014608C78A407CD7844EA05640D7944EA97
:1006B00005444D7944EA05540D886D1E2C43D461E0
:1006C000146824F001041460002300E05B1C5468EB
:1006D00004F001041CB14FF6FF74A342F6D1546834
:1006E00004F001040CB1002000E0012030BD10B581
:1006F0000021837A012202FA03F1AC4A126842F027
:100700000102AA4B1A60A94A1C3212688A43A74BFD
:100710001C331A60027BCAB9A44A0C3212688A439D
:10072000A24B0C331A604288C38842EA03439F4AB3
:100730004032847A42F834300288838842EA0343A4
:100740009A4A4032847A02EBC4025360027B012A47
:1007500019D1964A0C3212680A43944B0C331A6032
:100760004288038842EA0343904A4032847A42F83E
:100770003430C288838842EA03438C4A4032847A08
:1007800002EBC4025360C27A3AB9884A121D126859
:100790008A43864B1B1D1A6006E0844A121D1268AC
:1007A0000A43824B1B1D1A60028932B97F4A1432F8
:1007B00012688A437D4B14331A600289012A06D1DC
:1007C0007A4A143212680A43784B14331A60427B17
:1007D000012A06D1754A1C3212680A43734B1C3336
:1007E0001A60724A126822F00102704B1A6010BD42
:1007F00000218171C171017241728172C172817077
:10080000C1700321017102214171012101807047F2
:100810006649096841F00101644A1160114609689E
:1008200043F60E729143614A11601146096841EA2C
:10083000002111601146096821F001011160704723
:1008400021B1026842F48032026003E0026822F4BF
:10085000803202607047E1B1026842F080020260BB
:100860004FF4C272125842F480734FF4C2721350A4
:100870004FF4CA72125842F480734FF4CA72135084
:100880004FF4D272125842F480734FF4D272135064
:100890001BE0026822F0800202604FF4C27212581C
:1008A00022F480734FF4C27213504FF4CA7212587C
:1008B00022F480734FF4CA7213504FF4D27212585C
:1008C00022F480734FF4D2721350704710B5024671
:1008D0000020936803F08063B3F1806F00D110E0D3
:1008E000936803F00063B3F1006F01D1012008E0C9
:1008F000936803F08053B3F1805F01D1022000E0E0
:100900000420042879D002F5C07303EB00131B68A0
:1009100003F0010402F5C07303EB00131C600B7AB3
:100920007BB94B7A0C8843EA445302F5C07404EB5C
:1009300000142468234302F5C07404EB0014236000
:1009400010E00B7A4C6843EAC4034C7A234302F567
:10095000C07404EB00142468234302F5C07404EB54
:10096000001423608B7A03F00F038B7202F5C073BF
:1009700003EB00135B6823F00F0402F5C07303EB75
:1009800000135C6002F5C07303EB00135B688C7AA4
:10099000234302F5C07404EB001463608B7B1C06D8
:1009A0004B7B44EA034403E00064004000660040DF
:1009B0000B7B44EA0323CC7A234302F5C07404EB97
:1009C0000014A3608B7C1C064B7C44EA03440B7C24
:1009D00044EA0323CC7B234302F5C07404EB0014E8
:1009E000E36002F5C07303EB00131B6843F00104DE
:1009F00002F5C07303EB00131C6010BD10B5024676
:100A0000002321B1012907D002290FD109E0906804
:100A1000F94C00EA04030BE09068F84C00EA040388
:100A200006E09068F64C00EA040301E0002300BFF2
:100A300000BFF44C181BA34216D007DC83B16FF043
:100A40008060184470B1022818D111E0B0F5007F21
:100A500010D0ED4C204448B1B0F5003F0ED10BE072
:100A600002230DE000230BE0002309E0002307E050
:100A7000012305E0012303E0012301E0002300BF7F
:100A800000BFD8B210BD21B1012907D002290FD172
:100A900009E0826842F0800282600AE0826842F4E3
:100AA0000042826005E0826842F40002826000E059
:100AB00000BF00BF704710B500F5D87303EB0113FA
:100AC0001B6803F004031372137A53B900F5D8734B
:100AD00003EB01131B6840F2FF7404EA53531360E5
:100AE00009E000F5D87303EB01131B686FF0604455
:100AF00004EAD303536000F5D87303EB01131B68BA
:100B000003F00203537200F5D87303EB01135B6823
:100B100003F00F03937200F5D87303EB01135B68C6
:100B20001B0AD37400F5D87303EB01139B68D372CF
:100B300000F5D87303EB01139B681C0A147300F5CE
:100B4000D87303EB01139B681C0C547300F5D87326
:100B500003EB01139B681B0E937300F5D87303EB33
:100B60000113DB68D37300F5D87303EB0113DB6863
:100B70001C0A147400F5D87303EB0113DB681C0C1A
:100B8000547400F5D87303EB0113DB681B0E9374E8
:100B900021B9C36843F02003C36003E0036943F055
:100BA0002003036110BD21B9C26842F02002C26077
:100BB00003E0026942F02002026170470246002011
:100BC00019B9D36803F0030006E0012903D11369C2
:100BD00003F0030000E00020704710B502460B460A
:100BE00000204FF6FF71BBB9146824F0020444F0F2
:100BF0000104146000E0491E546804F00304012C51
:100C000001D00029F7D1546804F00304012C01D06D
:100C1000002032E0012030E0012B13D1146824F0D1
:100C20000304146000E0491E546804F003040CB18E
:100C30000029F8D1546804F003040CB100201CE032
:100C400001201AE0022B17D1146824F0010444F0AB
:100C50000204146000E0491E546804F00304022CEE
:100C600001D00029F7D1546804F00304022C01D00C
:100C7000002002E0012000E0002010BD014600201D
:100C80000A6822F0010242F002020A604A6802F099
:100C90000302022A00D10120704701464FF6FF727D
:100CA00000200B6823F002030B6000E0521E4B682B
:100CB00003F00203022B01D1002AF7D14B6803F0A5
:100CC0000203022B00D001207047014600208A69F0
:100CD00002F070007047014600208A69100E7047CC
:100CE000014600208A69C2F3074070471AB1436980
:100CF0000B43436102E043698B434361704710B586
:100D00000246002001F4700343B19369C1F3130458
:100D100023400BB101202DE000202BE001F0807377
:100D200043B15368C1F3130423400BB1012021E008
:100D300000201FE001F0006343B19368C1F3130486
:100D400023400BB1012015E0002013E001F00073F7
:100D500043B1D368C1F3130423400BB1012009E070
:100D6000002007E01369C1F3130423400BB10120F5
:100D700000E0002010BD0022244B994202D1002344
:100D8000836111E0C1F3130201F000730BB1C26083
:100D90000AE001F080630BB1026105E001F000633D
:100DA0000BB1826000E0426070470246002002EA18
:100DB00001030BB1012000E00020704770B504462C
:100DC0000D46002660692840002872D0B5F5807F66
:100DD00069D01DDC082D42D006DC012D2DD0022D5E
:100DE00031D0042D7FD134E0102D3ED0202D42D0C3
:100DF000402D78D145E00000030000040003000806
:100E000000000310000100080001FFF77000F0303F
:100E1000B5F5004F61D009DCB5F5007F4AD0B5F5D6
:100E2000806F4DD0B5F5006F5DD150E0B5F5803FD6
:100E30002DD0B5F5003F56D12FE0A0685549FFF7FA
:100E4000B4FF064651E0E0680321FFF7AEFF064617
:100E50004BE0E0680821FFF7A8FF064645E0E068A0
:100E60001021FFF7A2FF06463FE020690321FFF7AC
:100E70009CFF064639E020690821FFF796FF0646E9
:100E800033E020691021FFF790FF06462DE06068EF
:100E90000821FFF78AFF064627E060681021FFF768
:100EA00084FF064621E0A0690121FFF77EFF064688
:100EB0001BE01BE0A0690221FFF777FF064614E064
:100EC000A0690421FFF771FF06460EE00BE0A06960
:100ED0007021FFF76AFF064607E060680421FFF70C
:100EE00064FF064601E0002600BF00E00026304611
:100EF00070BDB1F5007F3AD00FDC202928D006DC88
:100F000001291CD004291DD0082940D11DE0402909
:100F100021D0B1F5807F3AD126E0B1F5004F31D034
:100F200006DCB1F5806F25D0B1F5006F2FD124E03C
:100F3000B1F5803F12D0B1F5003F28D111E0154A3C
:100F4000826025E00822C26022E01022C2601FE019
:100F5000082202611CE01022026119E008224260AE
:100F600016E01022426013E00422426010E00422E6
:100F700042600DE0042242600AE000228261042205
:100F8000426005E0002282610422426000E000BF6E
:100F900000BF70470101010010B504469848844223
:100FA00008D10121084600F086FB0021012000F055
:100FB00082FB76E09348844208D10121022000F0B0
:100FC0007AFB0021022000F076FB6AE08E48844222
:100FD00008D10121042000F06EFB0021042000F064
:100FE0006AFB5EE08948844208D10121082000F0B4
:100FF00062FB0021082000F05EFB52E0844884423E
:1010000008D10121102000F056FB0021102000F033
:1010100052FB46E07F48844208D10121202000F0A5
:101020004AFB0021202000F046FB3AE07A48844247
:1010300008D10121402000F03EFB0021402000F0BB
:101040003AFB2EE07548844208D10121802000F04F
:1010500032FB0021802000F02EFB22E07048844209
:1010600008D10121801500F026FB0021A01500F019
:1010700022FB16E06B48844208D10121401500F0A4
:101080001AFB0021601500F016FB0AE06648844256
:1010900007D10121001500F00EFB0021201500F002
:1010A0000AFB10BDF0B50A4600210023002400BF52
:1010B0003DE0012505FA01F3156805EA03049C42A9
:1010C00034D105684F000326BE40B543056015794D
:1010D0004E00B5400668354305601579012D02D0F4
:1010E0001579022D16D185684F000326BE40B54301
:1010F000856055794E00B540866835438560456802
:1011000001268E40B5434560456896798E40B6B25B
:1011100035434560C5684F000326BE40B543C560F2
:10112000D5794E00B540C6683543C560491C1029C5
:10113000BFD3F0BD4FF6FF71016000210171417115
:101140008171C171704708B54FF480320092009AE6
:101150000A430092009AC261C161009AC261C269E9
:101160000092C269009208BD0246002013690B403C
:101170000BB1012000E0002070470146086980B2F1
:1011800070470246002053690B400BB1012000E07C
:10119000002070470146486980B27047018370475C
:1011A000418370470AB1018300E041837047416188
:1011B000704742694A4042617047F0B500230024FD
:1011C0004D07ED0E02FA05F3CE1000F1200555F89B
:1011D00026504E07F70E0F26BE40B543CF1000F144
:1011E000200646F82750CE1000F1200555F826506D
:1011F00045EA0304CE1000F1200545F82640F0BD75
:10120000000002400004024000080240000C0240BE
:10121000001002400014024000180240001C02406E
:10122000002002400024024000280240F9480068E3
:1012300040F00100F74908600020F64908310860D5
:10124000F4480068F4490840F2490860F348091D71
:101250000860F348EF4984310860F0481038091DF0
:101260000860EC48006820F48020EA49086000200B
:10127000E8490C310860E7498C310860704700216B
:10128000E44A921C117011460870704710B501466F
:101290000022002300204A11012A02D1DD4C2368DC
:1012A00008E0022A03D1DB4C7034236802E0D94CF9
:1012B0007434236801F01F02012494401C400CB1D7
:1012C000012000E0002010BD38B50020009000246F
:1012D000002500BF3120FFF7D9FF05460098401CCC
:1012E00000900098B0F5A04F01D0002DF2D0312031
:1012F000FFF7CCFF08B1012400E00024204638BDF0
:1013000001460020C34A106820F0F80040EAC100FE
:1013100010607047C349086070470021BD4A7032B1
:1013200011701170012802D004280AD104E00121B3
:10133000B84A7032117005E00521B64A703211705A
:1013400000E000BF00BF7047B7490860704770B544
:10135000049C41EA82150126C6EB530645EA064580
:10136000054345EA0465AB4E361D356070BDAD4999
:1013700008667047820142EA0172A64B84331A6004
:101380007047A8498866704710B5830143EA016336
:1013900043EA02739F4C8834236010BDA14908675B
:1013A0007047A049C864704702460020994B083333
:1013B000186820F0EC6042EA01031843954B0833AB
:1013C0001860704702460020924B0833186820F0DE
:1013D000784042EA010318438E4B08331860704787
:1013E000014600208B4A0832106820F003000843B1
:1013F0001060704787480830006800F00C007047A4
:1014000001460020834A0832106820F0F0000843AB
:1014100010607047014600207E4A0832106820F4B0
:10142000E05008431060704701460020794A0832B6
:10143000106820F4604040EAC10010607047F0B5C9
:10144000002100220024022500260223714F0837C4
:101450003F6807F00C0121B1042905D0082937D1D4
:1014600005E0724F076036E0714F076033E0694F67
:101470003F1D3F68C7F38056664F3F1D3F6807F02A
:101480003F036EB16A4FB7FBF3F7DFF888C10CF189
:10149000040CDCF800C0CCF3881C07FB0CF40CE057
:1014A000624FB7FBF3F7DFF86CC10CF1040CDCF80A
:1014B00000C0CCF3881C07FB0CF4564F3F1D3F685F
:1014C000C7F301477F1C7D00B4FBF5F7076002E01E
:1014D000564F076000BF00BF4E4F08373F6807F008
:1014E000F0010909534F7A5C0768D7404760494FBC
:1014F00008373F6807F4E051890A4E4F7A5C476825
:10150000D7408760434F08373F6807F46041490B75
:10151000484F7A5C4768D740C760F0BD002100F4AF
:101520004072B2F5407F0AD13A4A0832116821F47C
:10153000F811414A02401143364A08321160354AD7
:1015400070321268C0F30B031A43324B70331A60C7
:10155000704735494439086070473349403908605D
:10156000704736490860704701460020294A8C328E
:10157000106820F01F004A1E1043264A8C3210606B
:10158000704701460020234A8C32106820F4F8503E
:101590004A1E40EA02201F4A8C3210607047014602
:1015A00000201C4A8C32106820F440100843106060
:1015B000704701460020174A8C32106820F4400022
:1015C00008431060704701460020124A8C321068B0
:1015D00020F4403008431060704719490860704794
:1015E00039B10C4A3032126802430A4B30331A6068
:1015F00006E0084A303212688243064B30331A60E4
:101600007047F9B1034A343212680243014B343354
:101610001A601CE000380240FFFFF6EA1030002498
:101620000030002000004742800E47420024F400B2
:1016300000127A0014000020FFFCFF0F5C014742FB
:10164000E01147428F4A126882438E4B1A607047FE
:1016500039B18C4A121D126802438A4B1B1D1A6055
:1016600006E0884A121D12688243864B1B1D1A60D1
:10167000704739B1834A0C3212680243814B0C33F4
:101680001A6006E07F4A0C32126882437D4B0C33AD
:101690001A60704739B17B4A103212680243794BA5
:1016A00010331A6006E0774A103212688243754B95
:1016B00010331A60704739B1724A243A12680243F3
:1016C000704B243B1A6006E06E4A243A126882434B
:1016D0006C4B243B1A60704739B16A4A203A126851
:1016E0000243684B203B1A6006E0664A203A1268C3
:1016F0008243644B203B1A60704739B1614A1C3AFF
:10170000126802435F4B1C3B1A6006E05D4A1C3ABC
:10171000126882435B4B1C3B1A60704739B1594ACF
:10172000143A12680243574B143B1A6006E0554ABC
:10173000143A12688243534B143B1A60704739B114
:10174000504A103A126802434E4B103B1A6006E0B2
:101750004C4A103A126882434A4B103B1A60704759
:1017600039B1484A1C3212680243464B1C331A6096
:1017700006E0444A1C3212688243424B1C331A6012
:10178000704739B13F4A2032126802433D4B203343
:101790001A6006E03B4A203212688243394B2033FC
:1017A0001A60704739B1374A243212680243354B08
:1017B00024331A6006E0334A243212688243314BE4
:1017C00024331A60704739B12E4A2C321268024312
:1017D0002C4B2C331A6006E02A4A2C3212688243C2
:1017E000284B2C331A60704739B1264A30321268C0
:1017F0000243244B30331A6006E0224A303212682A
:101800008243204B30331A607047012808D11D49AC
:101810003C31096841F008011A4A3C32116007E086
:1018200018493C31096821F00801164A3C32116020
:10183000704739B1134A273A12780243114B273BBC
:101840001A7006E00F4A273A127882430D4B273B65
:101850001A7070470B484030006840F080700949AA
:1018600040310860704701460020064A283A126855
:101870000A400AB1012000E00020704701492639E2
:10188000087070473438024010B50446FA48844264
:1018900008D101211020FFF752FF00211020FFF78F
:1018A0004EFF57E0F548844209D101214804FFF773
:1018B00035FF00214FF40030FFF730FF4AE0F048D9
:1018C000844209D101218804FFF728FF00214FF449
:1018D0008020FFF723FF3DE0EA48844209D101213F
:1018E000C804FFF71BFF00214FF40020FFF716FF8D
:1018F00030E0E548844209D101210805FFF70EFFD9
:1019000000214FF48010FFF709FF23E0DF488442F5
:1019100008D101212020FFF712FF00212020FFF72E
:101920000EFF17E0DA48844209D101218807FFF74A
:10193000F5FE00214FF08040FFF7F0FE0AE0D548A9
:10194000844207D101214005FFF7E8FE0021600530
:10195000FFF7E4FE10BD2DE9FF4705460E460024C3
:10196000A14600BFA046B08900B100BF2C8A24F474
:101970004054F08804432C82AC8941F20C608443CB
:10198000B08831890843718908430443AC81AC8A2B
:1019900024F44074B0890443AC826846FFF74FFDDD
:1019A000B548854202D0B948854202D1DDF80C9095
:1019B00001E0DDF80890A88900F4004040B109EB8F
:1019C000C90000EB091031684900B0FBF1F707E0EE
:1019D00009EBC90000EB091031688900B0FBF1F791
:1019E0006420B7FBF0F004012009642101FB1078AA
:1019F000A88900F4004040B1322000EBC800B0FBE1
:101A0000F1F000F00700044308E0322000EB08107A
:101A10006421B0FBF1F000F00F0004432C81BDE81D
:101A2000FF874FF41651016000218180C180018140
:101A30000C21418100218181704710B502460020B0
:101A4000108A20F470600B884C8823438C882343D1
:101A5000CC8823431843108210BD002101804180AF
:101A60008180C180704721B1828942F40052828115
:101A700004E082894DF6FF731A4082817047028B21
:101A800002F47F420283028B0A430283704721B132
:101A9000828942F40042828103E08289C2F30E020D
:101AA0008281704721B1828A42F40062828204E01E
:101AB000828A4FF2FF731A4082827047C1F3080294
:101AC0008280704701468888C0F308007047028A08
:101AD0004FF6F0731A400282028A0A43028270476C
:101AE00021B1828942F00202828104E082894FF6AC
:101AF000FD731A408281704782894FF2FF731A404A
:101B0000828182890A4382817047028A4FF6DF739D
:101B10001A400282028A0A430282704721B1028A75
:101B200042F48042028204E0028A4BF6FF731A40BC
:101B300002827047818941F001018181704721B1A2
:101B4000828A42F00802828204E0828A4FF6F773AA
:101B50001A4082827047028BD2B20283028B42EA21
:101B600001220283704721B1828A42F020028282E0
:101B700004E0828A4FF6DF731A408282704721B1F7
:101B8000828A42F01002828204E0828A4FF6EF736A
:101B90001A4082827047828A4FF6FB731A40828213
:101BA000828A0A438282704721B1828A42F002020D
:101BB000828204E0828A4FF6FD731A408282704767
:101BC0001AB1838A0B43838202E0838A8B43838228
:101BD0007047F0B50346002400260025002040F69B
:101BE0006A17B94200D100BF1846C1F3421401F090
:101BF0001F06012707FA06F5012C01D10C3004E07D
:101C0000022C01D1103000E014301AB107682F43C4
:101C1000076002E00768AF430760F0BD024600209E
:101C2000B1F5007F00D100BF13880B400BB101203C
:101C300000E00020704701F40072B2F5007F00D18F
:101C400000BFCA430280704770B5024600240023DB
:101C50000025002040F66A16B14200D100BFC1F352
:101C6000421501F01F03012606FA03F3012D13D1DB
:101C70009689334017E00000001001400044004006
:101C800000480040004C004000500040001401405B
:101C900000780040007C0040022D02D1168A3340BB
:101CA00001E0968A33400C12012606FA04F41688E5
:101CB000344013B10CB1012000E0002070BD10B51C
:101CC0000022002340F66A14A14200D100BF0A128C
:101CD00001249440A3B2DC43048010BD10B5044637
:101CE0006FF00400FEF742FCE11704EB5171C1F301
:101CF000C701394A11701046007800EB4001C1EB72
:101D0000C0104FF6FF7101EAC0003449088010BDD1
:101D10000146314A12784A434FF0E0235A610022CB
:101D20009A611A46126942F001021A6100BF4FF02F
:101D3000E022106900F001021AB100F48032002A9A
:101D4000F5D04FF0E022126922F001024FF0E023BB
:101D50001A6100229A6170470146204A12884A435C
:101D60004FF0E0235A6100229A611A46126942F04C
:101D700001021A6100BF4FF0E022106900F0010279
:101D80001AB100F48032002AF5D04FF0E022126937
:101D900022F001024FF0E0231A6100229A6170479D
:101DA00070B504464FF4077094FBF0F0C6B24FF4E0
:101DB000077094FBF0F100FB114085B205E04FF491
:101DC0000770FFF7C9FF701EC6B2002EF7D115B11C
:101DD0002846FFF7C1FF70BD240000202600002028
:101DE00000BF704700BFFE4A128802F04002002A7E
:101DF000F9D0C2B2FA4B1B1D1A80704710B588B0DB
:101E0000044601210846FFF7EBFB01214804FFF7D8
:101E100030FC07220221F348FFF7CFF90722032104
:101E2000F048FFF7CAF90C20069002208DF81C003C
:101E30008DF81D0000208DF81E0001208DF81F0078
:101E400006A9E848FFF72EF902940020ADF80C002F
:101E5000ADF80E00ADF81000ADF814000C20ADF890
:101E6000120002A9DE48FFF776FD0121DC48FFF7EA
:101E7000FAFD012240F22551D948FFF7AAFE26209B
:101E80008DF8040002208DF805008DF80600012071
:101E90008DF8070001A8FEF71CFB08B010BD10B5B7
:101EA00088B0044601210846FFF79AFB0121102063
:101EB000FFF7F0FB07220921CA48FFF77EF9072246
:101EC0000A21C848FFF779F94FF4C0600690022054
:101ED0008DF81C008DF81D0000208DF81E000120DB
:101EE0008DF81F0006A9BF48FFF7DCF80294002018
:101EF000ADF80C00ADF80E00ADF81000ADF8140010
:101F00000C20ADF8120002A9B748FFF724FD01210B
:101F1000B548FFF7A8FD012240F22551B248FFF76E
:101F200058FE25208DF8040002208DF805008DF85C
:101F3000060001208DF8070001A8FEF7CAFA08B0D4
:101F400010BD10B504462046FFF7A9FF2046FFF755
:101F500055FF10BD0FB410B5B4B0002437A80090E1
:101F60004021A148FFF767FEC92101A8009B369ACE
:101F700000F05CFD0EE02046621CD4B201AA115CA8
:101F80009948FFF79BFD00BF40219748FFF746FEA9
:101F90000028F9D0C82C04DA01A800F091FAA04278
:101FA000E9D80020009034B010BC5DF814FB10B5E7
:101FB00040F225518C48FFF747FE10B38A48FFF7DF
:101FC00081FDC4B28948008800F40040C8B9874840
:101FD000008800F4804060B10A2C03D000208349BF
:101FE000088020E08148008840F400407F49088054
:101FF00019E00D2C06D17D48008840F480407B49D3
:10200000088010E079480088C0F30D0078490C542E
:1020100076480088401C7549088008460088C72813
:1020200001DD0020088010BD0FB410B5B4B000244D
:1020300037A8009040216A48FFF7FDFDC92101A89B
:10204000009B369A00F0F2FC0EE02046621CD4B2EF
:1020500001AA115C6248FFF731FD00BF40216048D2
:10206000FFF7DCFD0028F9D0C82C04DA01A800F045
:1020700027FAA042E9D80020009034B010BC5DF8E7
:1020800014FB10B540F225515548FFF7DDFD00283F
:102090004AD05348FFF716FDC4B20D2C0BD155485A
:1020A000008800F4804030B95248008840F48040F5
:1020B0005049088007E00A2C05D14E48008840F4BA
:1020C00000404C4908804B48008800F4004058BB51
:1020D0004848008800F4804060B10A2C03D00020FA
:1020E0004449088020E04348008840F400404149CA
:1020F000088019E00D2C06D13E48008840F480404D
:102100003C49088010E03B480088C0F30D003A4984
:102110000C5438480088401C36490880084600881E
:10212000C72801DD0020088010BD0FB410B5B4B081
:10213000002437A8009040213048FFF77CFDC921DA
:1021400001A8009B369A00F071FC0EE02046621C4C
:10215000D4B201AA115C2948FFF7B0FC00BF4021AE
:102160002648FFF75BFD0028F9D0C82C04DA01A847
:1021700000F0A6F9A042E9D80020009034B010BCCD
:102180005DF814FB10B588B0044601210420FFF768
:1021900027FA01212020FFF77DFA0822062118489E
:1021A000FFF70BF8082206211548FFF706F8C020B4
:1021B000069002208DF81C008DF81D0000208DF87F
:1021C0001E0001208DF81F0006A90D48FEF76AFFCA
:1021D00002940020ADF80C00ADF80E0012E00000F3
:1021E0000044004000000240001001402C0000208C
:1021F000340000202E000020FC00002000140140CC
:1022000000080240ADF81000ADF814000C20ADF845
:10221000120002A92C48FFF79EFB01212A48FFF774
:1022200022FC012240F225512748FFF7D2FC47202B
:102230008DF8040003208DF805008DF806000120BC
:102240008DF8070001A8FEF744F908B010BD10B5DD
:1022500040F225511C48FFF7F7FC10B31A48FFF76E
:1022600031FCC4B21948008800F40040C8B91748CE
:10227000008800F4804060B10A2C03D0002013498C
:10228000088020E01148008840F400400F49088091
:1022900019E00D2C06D10D48008840F480400B4910
:1022A000088010E009480088C0F30D0008490C546C
:1022B00006480088401C0549088008460088C72851
:1022C00001DD0020088010BD001401403000002016
:1022D000C401002000B58BB001210820FFF780F970
:1022E00001214806FFF7C5F9092200215C48FEF7E5
:1022F00064FF092201215A48FEF75FFF022009907E
:1023000001208DF82B0000208DF82A0002208DF886
:1023100028008DF8290009A95148FEF7C3FE0120C5
:10232000099002208DF8280009A94D48FEF7BAFE51
:102330004C48FEF739F906A8FEF75AFA00208DF846
:102340001A0001208DF81F008DF8200003208DF861
:102350001C0001208DF81D008DF81B000C20ADF82D
:10236000180000208DF822008DF821008DF81E0045
:102370008DF8230006A93B48FEF72FF900208DF8C1
:1023800012008DF81300ADF81000ADF80800ADF89C
:102390000A0001208DF814008DF8150002A8FEF740
:1023A000A6F914208DF8040001208DF80500002006
:1023B0008DF8060001208DF8070001A8FEF789F8C6
:1023C000012202212748FEF791FC0BB000BD10B599
:1023D00025A000F01BFB2C4A00212248FEF76BFBD6
:1023E00029490B3129A000F011FB274841682AA098
:1023F00000F00CFB2BA000F009FB10BD2DE9F04113
:1024000004460F46002541F62C60606004202072CF
:10241000002060720820A07200BF05E0795D04F121
:102420000B004155681C85B2082DF7DB00252146BD
:102430000C48FEF74BFA064601E0681C85B23146AF
:102440000848FEF7DBFA012802D0B5F5FA6FF4DD93
:10245000B5F5FA6F02DB0120BDE8F0810020FBE753
:10246000000C024000640040656E746572204341B8
:102470004E315F5258305F49525148616E646C650D
:1024800072200D0A000000008C020020446174617B
:102490003A25730D0A00000045787449643A2564B2
:1024A0000D0A0000657874692043414E315F52582F
:1024B000305F49525148616E646C6572200D0A00AC
:1024C000421C10F8011B0029FBD1801A704730B55F
:1024D0000B46014600202022012409E021FA02F5E2
:1024E0009D4205D303FA02F5491B04FA02F528447C
:1024F000151EA2F10102F1DC30BD2DE9F05F0546A9
:10250000002092469B4688460646814640241BE0B2
:10251000284641464746224600F0F9F953465A46B6
:10252000C01A914110D311461846224600F0E0F936
:102530002D1A67EB01084F4622460120002100F0CA
:10254000D7F917EB00094E41201EA4F10104DFDC8E
:10255000484631462A464346BDE8F09F2DE9FE4FE6
:10256000804681EA0300C00F0C46009021F0004134
:1025700023F00045B8EB0200A94105D240462146B0
:1025800090461C460B46024623F00040104347D0BD
:10259000270DC7F30A00C3F30A510290401A0190B5
:1025A00040286BDAC3F3130040F4801B0098924676
:1025B00020B10023D2EB030A63EB0B0B01985946C1
:1025C000C0F14002504600F093F906460D465046D1
:1025D0005946019A00F0ABF910EB08006141002464
:1025E00087EA115284EAE7731A4340D0009A62B333
:1025F000019A012A4FEA075215DC001B61EB020128
:102600004FF0004202EA0752CDE90042001C41F5BA
:10261000801132462B4600F0ABF903B0BDE8F08FD5
:1026200040462146F9E7001B61EB0201001C41F521
:10263000801300185B412018A2F5001747EB030137
:1026400040EAD570B6196D4111E06D084FEA3606C3
:1026500045EAC0754FEA0752001B61EB0201001CFE
:1026600041F5801149084FEA3000001951413246C6
:102670002B4603B0BDE8F04F00F06BB90098012283
:1026800040000023D0EB020263EBE0730098214688
:102690004FEAE074B8EB000061EB0401E9E783F076
:1026A00000435BE781F0004158E72DE9FE4F81EAE6
:1026B000030404F0004421F0004100944FF0000BAB
:1026C00023F0004350EA01045ED052EA03045BD0D9
:1026D000C3F30A54C1F30A552C44A4F2F334019411
:1026E000A0FB0254C1F3130141F48011C3F313039F
:1026F00043F4801301FB024400FB034E840A970A53
:1027000044EA815447EA8357A4FB076802958D0A7F
:1027100005FB07854FEA932C04FB0C542705029D0B
:102720004FEA065847EA1637B5EB08056EEB070C7B
:10273000870E920E47EA811742EA8312A7FB020135
:10274000B6EB0B0164EB00042B0D43EA0C335E186F
:1027500044EB1C50DA465146E7FB0201C5F3130473
:102760004FEA0B3343EA14534FEA0432019C43EA25
:102770000603A4F10C040294009CCDE900B400F01F
:10278000F7F803B0BDE8F08F00200146F9E72DE926
:10279000F04D81EA030404F0004B21F0004514469B
:1027A0004FF0000A23F0004150EA050220D054EA1D
:1027B00001021DD0C5F30A570246C5F31303C1F346
:1027C0001300C1F30A5640F4801543F48013A7EBBD
:1027D0000608101BD64608F2FD3873EB050002D33D
:1027E00008F1010801E092185B41B8F1000F03DA2B
:1027F00000200146BDE8F08D00204FF48011064610
:1028000084460EE0171B73EB050705D3121B63EB21
:10281000050306434CEA010C49084FEA30009218C0
:102820005B4150EA0107EDD152EA030012D082EA7F
:10283000040083EA0501084305D0101BAB4106D212
:102840000122002306E000224FF0004302E06FF077
:10285000010253101AEB06004CEB085110EB0A0072
:1028600041EB0B01BDE8F04D00F073B8C1F30A5223
:10287000C1F3130140F2FF3341F480119A4202DAAE
:1028800000200146704740F233439A42A2F233429D
:1028900002DC524200F03BB800F02AB830B5041E0A
:1028A00071F1000404DB4FF00044404264EB01018D
:1028B000141E73F1000405DB1C464FF00043524226
:1028C00063EB0403994208BF904230BD064C074DAC
:1028D00006E0E06840F0010394E8070098471034F0
:1028E000AC42F6D3FDF754FC4033000860330008D7
:1028F000202A04DB203A00FA02F1002070479140C0
:10290000C2F1200320FA03F3194390407047202AB4
:1029100004DB203A21FA02F00021704721FA02F389
:10292000D040C2F120029140084319467047202A46
:1029300006DBCB17203A41FA02F043EAE07306E0E7
:1029400041FA02F3D040C2F12002914008431946F7
:10295000704710B5141E73F1000408DA401C41F1F1
:10296000000192185B411A4301D120F0010010BD13
:102970002DE9F04D92469B4611B1B1FA81F202E089
:10298000B0FA80F220329046FFF7B2FF04460F46BD
:1029900040EA0A0041EA0B0153465A46084313D065
:1029A000114653EA010019D0C8F140025046FFF722
:1029B000AEFF05460E46504659464246FFF798FF81
:1029C000084305D0012004E020463946BDE8F08DDB
:1029D0000020054346EAE0762C4337430A98630516
:1029E000E40AA0EB08000022FD0A44EA47540A303A
:1029F00002D500200146E9E7010510196941DDE92A
:102A0000084500196941BDE8F04DA2E70FB4054B38
:102A100010B503A9044A029800F0F0F810BC5DF864
:102A200014FB0000E51D0008280000207CB50446CA
:102A300000201D46164600290BD0491ECDE9004155
:102A4000044B6A462946304600F0D8F8009A002127
:102A500011707CBD2B33000802E008C8121F08C1AA
:102A6000002AFAD170477047002001E001C1121F0F
:102A7000002AFBD1704700002DE9FF5F82B00021E2
:102A8000DDE90430020DDDF840B0034318D044F610
:102A90001050A2F2FF3242431514119801281FD0A2
:102AA000A5EB0B00401C5FEA000A4FF000064E4FFA
:102AB000DFF83891B046504615D5CAF1000413E04E
:102AC000119801244AA3012801D16FEA0B01029851
:102AD000119AC0E90031C0E9024206B0BDE8F09F9A
:102AE000CBF10000DFE704460021404A491842EBE1
:102AF0000450CDE9001012E0E00707D032463B4613
:102B000040464946FFF7D1FD8046894632463B465E
:102B100010461946FFF7C9FD06460F466410002C03
:102B2000EAD1DDE90401DDE90023BAF1000F06DA9C
:102B3000FFF7BBFD42464B46FFF7B7FD05E0FFF749
:102B400026FE42464B46FFF722FE04460E46002272
:102B5000284BFFF7A3FE03D84FF0FF30014607E0F4
:102B60000022254B20463146FFF7F8FCFFF77EFE9A
:102B7000102409E0002C0ADB0A220023FFF7BDFC29
:102B8000039B30321A55641E50EA0102F2D1641CD4
:102B9000039AC4F111031444119A012A03D00122AB
:102BA00008430DD10AE0084304D000204FF0110B78
:102BB000119072E7A3EB0B056D1E0DE05B4504DD84
:102BC0004FF0000205F1010504E003DA4FF00002C6
:102BD000A5F10105002AECD002981199C0E9023153
:102BE000C0E9004579E70000000014400000F03F14
:102BF000300000000000F0430000E03F2DE9FF4FEF
:102C000095B09B468946064600250FE2252877D1D8
:102C100000242746F84A0121059400E0044316F8F1
:102C2000013F203B01FA03F01042F7D130782A2807
:102C300011D06FF02F033078A0F13002092A16D896
:102C4000059A44F0020402EB820203EB42021044B4
:102C5000761C0590EFE759F8042B0592002A03DA59
:102C6000504244F40054059044F00204761C30783D
:102C70002E2816D116F8010F44F004042A280DD08E
:102C80006FF02F023078A0F13003092B09D807EB41
:102C9000870302EB4303C718761CF3E759F8047B5C
:102CA000761C30786C280FD006DC4C2817D06828AA
:102CB0000DD06A2814D104E0742810D07A280FD1DE
:102CC0000DE044F400140AE044F4801401E044F4FC
:102CD00040147278824202D104F58014761C761C6E
:102CE000307866280BD013DC582877D009DC002810
:102CF00075D04528F6D04628F4D047281AD19DE152
:102D000018E0632835D0642879D0652812D195E180
:102D1000702873D008DC6728F1D069286FD06E283E
:102D20000DD06F2806D1B5E073282CD0752875D04A
:102D3000782874D05A46179990476D1C75E1C4F3F2
:102D40000250022809D003280DD0D9F80010042819
:102D50000DD00D6009F1040967E1D9F80010EA17F8
:102D6000C1E90052F6E7D9F800100D80F2E70D70C6
:102D7000F0E719F8041B8DF8001000208DF8010011
:102D8000EA46012003E059F804AB4FF0FF30610739
:102D90004FF0000102D40DE008F101018846B9426C
:102DA0000FDA8045F8DB1AF808100029F4D108E0A2
:102DB00008F1010188468142FADB1AF8081000295F
:102DC000F6D105985B46A0EB080721463846179ACE
:102DD00000F094FA284400EB080507E04DE029E1F3
:102DE0000DE01AF8010B5A4617999047B8F10108FF
:102DF000F7D25B4621463846179A13E142E00A2291
:102E00000092C4F302524FF0000A022A08D059F887
:102E100004CB032A4FEAEC710AD00DE029E02AE046
:102E200009F1070121F00702F2E802C1914609E029
:102E30000FFA8CFC4FEAEC71042A03D14FFA8CFC98
:102E40004FEAEC71002907DA0A460021DCF1000C98
:102E500061EB02012D2202E0220504D52B228DF820
:102E60000420012203E0E20701D02022F7E7904688
:102E700059E00A2102E010220DE010214FF0000A73
:102E800000910BE010224FF0000A44F004040827E0
:102E9000009203E008224FF0000A0092C4F30252AD
:102EA000022A05D059F804CB0021032A08D009E0F2
:102EB00009F1070121F00702F2E802C1914605E09D
:102EC0001FFA8CFC042A01D10CF0FF0C4FF0000813
:102ED000220728D5702806D0009B83F0100353EA00
:102EE0000A0305D00EE040228DF80420012208E0FC
:102EF0005CEA010206D030228DF804208DF805002E
:102F000002229046009B83F0080353EA0A030AD189
:102F10005CEA010201D1620705D530228DF8042058
:102F20004FF001087F1E582804D034A003900EA84B
:102F300002900DE036A0F9E753466046009AFFF78D
:102F4000DCFA84460398825C0298401E029002706C
:102F50005CEA0100F0D1029806A9081A00F1200AE3
:102F6000600702D524F4803400E00127574502DDD4
:102F7000A7EB0A0000E0002000EB0A010090059892
:102F80004144401A0590E00306D45B462146179A57
:102F9000059800F0B3F90544002706E001A85A4659
:102FA000C05D179990476D1C7F1C4745F6DBE00319
:102FB0000CD55B462146179A059800F09FF9054409
:102FC00004E030205A46179990476D1C0099481E1E
:102FD00000900029F5DC08E0029802995A46007832
:102FE000491C0291179990476D1CBAF10001AAF192
:102FF000010AF1DC65E100000928010030313233BB
:103000003435363738396162636465660000000024
:10301000303132333435363738394142434445460E
:103020000000000000F058F90544761C30780028B4
:103030007FF4ECAD19B02846BDE8F08F620700D4EC
:10304000062709F1070222F0070CFCE80223E146FB
:1030500003F000485FEA080C02D00FF2702C0DE07C
:103060005FEA045C02D50FF2682C07E05FEAC47CDB
:1030700002D00FF2602C01E0AFF2700C4FF0FF387D
:1030800023F00043CDF850C065280CD006DC45285D
:1030900009D046281DD047283DD13DE0662818D0EC
:1030A00067287ED138E00021112F01DB112000E0DC
:1030B000781CCDE9000106A90EA8FFF7DDFCDDE9CB
:1030C0000F010E9A03910021009207F1010A049169
:1030D0004DE04FF000400097CDE9011006A90EA881
:1030E000FFF7CAFCDDE90F0203920E9B1199002243
:1030F000DDF80CA00093049211B9791C00EB010AD1
:10310000B7EB0A0004D4C0F1FF3007F1010A0490C4
:10311000AAEB0700019044E0012F00DA012700210B
:10312000112F01DD112000E03846CDE9000106A98C
:103130000EA8FFF7A1FCDDE90F010E9A0391002113
:1031400004910092BA4621070CD40399514500DA44
:103150008A46BAF1010F05DD009AAAF10101515C1E
:10316000302908D0B84202DA10F1040F06DA012142
:10317000CDE9011015E0AAF10101E9E7002805DC1D
:10318000049901440491AAEB000102E0411C51455D
:1031900000DD8A460499401A401C01904FF000401F
:1031A0000290200704D40198504501DBCDF804803B
:1031B00000208DF84F0002980DF14F07B0F1004F3D
:1031C00025D02B200E9002984FF0020800280CDA30
:1031D000404202902D200E9007E00A210298FFF74E
:1031E00076F93031029007F8011DB8F10001A8F11D
:1031F0000108F2DC02980028EFD1791E0E980870C1
:10320000307800F0200040F0450007F8020D12A8C9
:10321000C01B00F107081498007800B1012000EBF2
:103220000A01019801EBE07105984144401A401EE3
:103230000590E00306D45B462146179A059800F0F6
:103240005DF805441498007818B15A4617999047CC
:103250006D1CE00324D55B462146179A059800F0C3
:103260004DF805441CE00498002807DBDDE9030164
:10327000884203DD0098405C179901E017993020DF
:103280005A469047049805F10105401C04900198A6
:10329000401E019004D12E205A46179990476D1C6C
:1032A000BAF10001AAF1010ADDDC05E017F8010B13
:1032B0005A46179990476D1CB8F10001A8F1010812
:1032C000F4DC5B462146179A0598ABE62D0000001A
:1032D0002B000000200000002DE9F04104460025ED
:1032E0001E461746880404D405E039462020B0471E
:1032F0006D1C641EF9D52846BDE8F0812DE9F0412A
:10330000044600251E469046C80301D5302700E03C
:103310002027880404D505E041463846B0476D1C97
:10332000641EF9D52846BDE8F0814A68002A06D017
:103330000A68531C0B6010704868401E4860704754
:10334000603300080000002034000000582A000804
:10335000943300083400002084060000682A000826
:10336000007A030A000000000000000001020304CC
:10337000060708090000000001020304010203041B
:10338000060708090000000000000000000000001F
:043390000000000039
:040000050800018965
:00000001FF
